:1000000005C100000C9464320C948F320C94BA3207
:100010000C94E5320C9410330C943B330C946633FF
:100020000C94913324C1000022C1000020C10000C3
:100030001EC100001CC100001AC1000018C1000050
:1000400016C1000014C1000012C1000010C1000060
:100050000EC100000CC100000AC100000C94BC33AA
:1000600006C100000C94B8370C94EE3700C10000B4
:10007000FEC00000FCC00000FAC00000F8C0000094
:10008000F6C00000F4C00000F2C00000F0C00000A4
:100090000C9444380C947A38EAC00000E8C00000A0
:1000A000E6C00000E4C00000E2C00000E0C00000C4
:1000B000DEC00000DCC00000DAC00000D8C00000D4
:1000C000D6C00000D4C000000C94302E0C94D03860
:1000D0000C940639CCC000000C945C390C94923915
:1000E000C6C0000000000A0B02090C0D0E08070331
:1000F00004010000000000000000000000000000FB
:1001000000000000000000000000000000000000EF
:1001100012111000000000000000000000000000AC
:100120000000000000000000000001021020200874
:100130000810204010204080020102010804020142
:1001400001020408102040808040201008040201B1
:10015000800402018040201008040201080402010A
:100160000102040810204080010204081020408091
:1001700005050505070508080808020202020A0A23
:100180000808040404040101010101010101030341
:10019000030303030303040707070C0C0C0C0C0CEC
:1001A0000C0C0202020206060606060606060B0BE9
:1001B0000B0B0B0B0B0B000020002300260029006B
:1001C0002C002F003200000100000301060109018C
:1001D00000002200250028002B002E0031003400F2
:1001E00002010000050108010B01000021002400AC
:1001F00027002A002D003000330001010000040117
:1002000007010A011738A3382F39BB3911241FBE43
:10021000CFEFD1E2DEBFCDBF00E00CBF13E0A0E026
:10022000B2E0E4EFF4E700E00BBF02C007900D92EC
:10023000A832B107D9F729E0A8E2B3E001C01D92C6
:10024000A838B207E1F711E0C6E0D1E000E006C04F
:1002500021970109802FFE010E94473AC230D10741
:1002600080E00807A9F70E941E2F0C94783AC8CEA8
:10027000611102C00C94FD356130E1F362E0FACF08
:10028000662319F061E00C94393660E0FCCFCF9220
:10029000DF92EF92FF92CF93882351F16A017B01A5
:1002A000CFEFC80F20E030E0A901CB01B6010E94DA
:1002B000123087FF11C0C701B60190580E941B3051
:1002C0009B01AC016C2F70E090E080E0CF91FF903B
:1002D000EF90DF90CF90B2C0C701B6010E941630F8
:1002E0008C2FCF91FF90EF90DF90CF900C94C33480
:1002F000CF91FF90EF90DF90CF9008950F931F93D1
:100300008B019C0183E036952795179507958A9573
:10031000D1F7085D1C4F462F477021E030E0F9010E
:1003200002C0EE0FFF1F4A95E2F7AF01F8012081EE
:100330002423CB010196211102C090E080E01F919F
:100340000F9108950F931F938B019C0183E03695C5
:100350002795179507958A95D1F7677081E090E00A
:1003600001C0880F6A95EAF7F801E85DFC4F20812B
:10037000452B31F48095822380831F910F9108953E
:10038000822BFACF2F923F924F925F926F927F9281
:100390008F929F92AF92BF92CF92DF92EF92FF9295
:1003A0000F931F93CF93DF93D62EC72E782E692EEF
:1003B00049015A01280161E08D2D0E94FD35CD2DA6
:1003C000DC2D8E010F5F1F4FA8016D2D7C2D872D19
:1003D000962DB8DF20E030E0A901C201B7010E94EC
:1003E0004C31181664F4C201B7010E941B302B0176
:1003F000C501B4010E941B30A201CE0123D0C80167
:10040000DF91CF911F910F91FF90EF90DF90CF90F0
:10041000BF90AF909F908F907F906F905F904F9024
:100420003F902F900895882341F08150682F70E00D
:1004300090E080E050E040E085CF0895862FB9013C
:100440000C94C3349C01FC01EC51FF4FE491E1504A
:10045000E231E0F4F0E08827EF5CFD4F8F4F0C9421
:10046000473A43024A024D026402790246028E0272
:100470009A029E02B502CA02DF02F6020B0346028E
:10048000200337034C0384B5806884BD60E0822F6D
:100490000C94393684B58062F8CF809180008C7FCF
:1004A00082608093800080918100807E8061682BD3
:1004B0006093810050938700409386008091800074
:1004C000806880938000E2CF809180008C7F826082
:1004D0008093800080918100807E8061682B609392
:1004E0008100509387004093860080918000806255
:1004F000E8CF809180008C7F826080938000809123
:100500008100807E8061682B60938100509387001A
:1005100040938600809180008860D3CF8091B000A6
:1005200080688093B0008091B100887F682B6093D1
:10053000B100ACCF8091B0008062F3CF8091900089
:100540008C7F82608093900080919100807E80619A
:10055000682B609391005093970040939600809190
:10056000900080688093900091CF809190008C7F64
:1005700082608093900080919100807E8061682BE2
:100580006093910050939700409396008091900063
:100590008062E8CF809190008C7F82608093900091
:1005A00080919100807E8061682B609391005093D0
:1005B000970040939600809190008860D3CF8091FF
:1005C000A0008C7F82608093A0008091A100807E3B
:1005D0008061682B6093A1005093A7004093A60010
:1005E0008091A00080688093A00050CF8091A000EF
:1005F0008C7F82608093A0008091A100807E8061CA
:10060000682B6093A1005093A7004093A6008091AF
:10061000A0008062E8CF8091A0008C7F82608093F0
:10062000A0008091A100807E8061682B6093A10072
:100630005093A7004093A6008091A0008860D3CF7C
:10064000809120018C7F8260809320018091210124
:10065000807E8061682B6093210150932701409335
:100660002601809120018068809320010FCF809126
:1006700020018C7F82608093200180912101807E07
:100680008061682B609321015093270140932601DC
:10069000809120018062E8CF809120018C7F826070
:1006A0008093200180912101807E8061682B60937E
:1006B00021015093270140932601809120018860F9
:1006C000D3CFCF93DF93EC0170E060E06C177D0730
:1006D0000CF5072E000C880B990B0E94493020E086
:1006E00030E0A9010E949B2F20E030E0A9010E9488
:1006F0009B2F20E030E040E450E40E949B2F20E05C
:1007000030E040E450E40E949A2F0E9416306F5F60
:100710007F4FDCCFDF91CF910895CF93DF9380910E
:100720004103909142030E946636EC018091470399
:1007300090914803C6DF80914303909144030E9447
:100740006636019771F48091450390914603219795
:1007500071F401969093460380934503DF91CF9106
:1007600008958091450390914603CD2B91F3019715
:10077000F1CFCF93DF938091390390913A030E9498
:100780006636EC0180913F03909140039ADF80919F
:100790003B0390913C030E946636019771F480916F
:1007A0003D0390913E03219771F4019690933E038F
:1007B00080933D03DF91CF91089580913D03909107
:1007C0003E03CD2B91F30197F1CFCF93DF9380912F
:1007D0003103909132030E946636EC018091370319
:1007E000909138036EDF80913303909134030E941F
:1007F0006636019771F48091350390913603219705
:1008000071F401969093360380933503DF91CF9175
:1008100008958091350390913603CD2B91F3019784
:10082000F1CFCF93DF9380913B0390913C030E94E3
:100830006636EC0180913F039091400342DF809146
:10084000390390913A030E946636019771F48091C2
:100850003D0390913E03CD2B71F4019690933E039E
:1008600080933D03DF91CF91089580913D03909156
:100870003E03219791F30197F1CFCF93DF938091BE
:100880003303909134030E946636EC018091370364
:100890009091380316DF80913103909132030E94CA
:1008A0006636019771F48091350390913603CD2B14
:1008B00071F401969093360380933503DF91CF91C5
:1008C00008958091350390913603219791F3019714
:1008D000F1CFCF93DF9380914303909144030E9423
:1008E0006636EC018091470390914803EADE8091DF
:1008F0004103909142030E946636019771F4809102
:10090000450390914603CD2B71F4019690934603D5
:1009100080934503DF91CF91089580914503909195
:100920004603219791F30197F1CF0F931F93CF9334
:10093000DF938C01EC0183E0CC0FDD1F8A95E1F79A
:10094000CF5CDC4F798368835B834A83888199819C
:1009500060E00E94FD358A819B8160E00E94FD3548
:100960008881998161E00E9439368A819B8161E0AA
:100970000E94393601301105D9F10230110509F410
:1009800066C0012B09F092C080913103909132032F
:1009900002978431910530F58B589D4FFC01808181
:1009A000082E000C990B41E050E06DE374E00E94CA
:1009B000EA31809133039091340302978431910599
:1009C000A0F48B589D4FFC018081082E000C990BE0
:1009D00041E050E065EE73E0DF91CF911F910F9100
:1009E0000C94EA318FEF9FEFDECF8FEF9FEFF0CFC8
:1009F0008091390390913A0302978431910508F56B
:100A00008B589D4FFC018081082E000C990B41E012
:100A100050E061E174E00E94EA3180913B039091E3
:100A20003C0302978431910578F48B589D4FFC016B
:100A30008081082E000C990B41E050E069EB73E0D7
:100A4000CBCF8FEF9FEFE3CF8FEF9FEFF5CF80916D
:100A500041039091420302978431910508F58B5828
:100A60009D4FFC018081082E000C990B41E050E065
:100A700069E674E00E94EA31809143039091440357
:100A800002978431910578F48B589D4FFC01808149
:100A9000082E000C990B41E050E06DE873E09CCF0C
:100AA0008FEF9FEFE3CF8FEF9FEFF5CFDF91CF91E8
:100AB0001F910F91089523E0880F991F2A95E1F760
:100AC000FC01EF5CFC4F84819581089590E080E00B
:100AD00008950F931F93009709F489C0611571055C
:100AE00009F485C0009148021091490220914A0200
:100AF00030914B020E3F1F4F2F4F3F4F09F068C000
:100B00004FEF5FEFBA014093480250934902609360
:100B10004A0270934B024091480250914902609101
:100B20004A0270914B02DC011296ED91FC9180819A
:100B30009181A281B38180938E0490938F04A093BE
:100B40009004B093910484819581A681B7818093AC
:100B50008A0490938B04A0938C04B0938D048085B9
:100B60009185A285B3858093860490938704A09392
:100B70008804B093890484859585A685B78580937C
:100B8000820490938304A0938404B093850410920C
:100B90007E0410927F0410928004109281040E94BF
:100BA000BD1482EE94E190934A038093490390939D
:100BB0004C0380934B030E94B413009731F421E05F
:100BC00030E030939304209392041F910F91089585
:100BD000009148021091490220914A0230914B0243
:100BE000DB010D931D932D933C93139794CF8FEFBF
:100BF0009FEFEBCF8F929F92AF92BF92CF92DF92F7
:100C0000EF92FF921F93CF93DF934B015C01109102
:100C1000950482E090E09093930480939204811471
:100C20009104A104B10441F480919504811104C0A0
:100C300080919404C1E08111C0E0C12CD12C7601D7
:100C400080919504811106C080919404811102C0A5
:100C5000CC23D9F083E090E09093930480939204A6
:100C6000CC2381F1CCE9DFEF111102C00E944718BB
:100C7000CE01DF91CF911F91FF90EF90DF90CF9049
:100C8000BF90AF909F908F9008956AE070E080E0F1
:100C900090E00E942B3480E1C80E87E2D81EE11C50
:100CA000F11C8FEF88169806A806B80631F0C1E04F
:100CB0008C149D04AE04BF0408F0C0E080E00E94E4
:100CC000E813BECFD0E0C0E0CFCFCF92DF92EF925B
:100CD000FF920F931F93CF93DF938F3F910511F0F6
:100CE00008F046C0209192043091930423303105DE
:100CF00039F020919204309193042130310531F480
:100D000024E030E030939304209392046A017B0145
:100D1000EC0182309105B8F011E0AE01C701B601D7
:100D20000E94B313AB01BC0190E080E0112311F1EC
:100D3000CE01DF91CF911F910F91FF90EF90DF9047
:100D4000CF900C945C1A8C01000F111F075B1C4F95
:100D5000D8018D919C91892BF9F20E94631A029718
:100D6000D9F6D801ED91FC91CE011995182FD5CF68
:100D70008FEF9FEFDF91CF911F910F91FF90EF9039
:100D8000DF90CF90089580E00C94E813CF93DF9329
:100D900086E090E090939304809392040E94411423
:100DA000EC01E9E4F3E084E0DF011D928A95E9F7C4
:100DB0000E94DF171092930410929204CE01DF91EB
:100DC000CF91089580919404089580917D040895B1
:100DD000609348027093490280934A0290934B02B9
:100DE00090E080E008952F923F924F925F926F9231
:100DF0007F928F929F92AF92BF92CF92DF92EF92AB
:100E0000FF920F931F93CF93DF93CDB7DEB7CB54F1
:100E1000D1090FB6F894DEBF0FBECDBF26967FAFC7
:100E20006EAF269728965FAF4EAF28973E8B2D8BDF
:100E30002C96FFAEEEAE2C97FB01E150F04CEE0F7E
:100E4000FF1FEE0FFF1FE80FF91F80809180A28027
:100E5000B3808F8A988EA98EBA8EB501A4014427DB
:100E600077FD439555276627772729964FAF299712
:100E7000F901E150F04CEE0FFF1FEE0FFF1F289617
:100E8000AEACBFAC2897EA0DFB1DC080D180E280DC
:100E9000F380CB8EDC8EED8EFE8EB701A60144274B
:100EA00077FD43955527662777272A964FAF2A97D0
:100EB000188B0F87F80130E020E02C96EEACFFACE9
:100EC0002C972E153F050CF43FC022969FAF8EAF96
:100ED00022971A8B098B312C212C812C912C5401B7
:100EE00083948D829E82AF82B88626968EAC9FAC0C
:100EF0002697281439047CF129969FAC29972A96C5
:100F0000AFAC2A9730E020E041E050E060E070E0D4
:100F10009A10F5C1C55BDF4F0FB6F894DEBF0FBE68
:100F2000CDBFDF91CF911F910F91FF90EF90DF9098
:100F3000CF90BF90AF909F908F907F906F905F9079
:100F40004F903F902F90089511921192119211920B
:100F50002F5F3F4FB2CF2296EEADFFAD229781912A
:100F60009191A191B1912296FFAFEEAF22978F8818
:100F7000988CA98CBA8CB7FE23C04D815E816F819D
:100F8000788541505109610971095A016B01A81A0C
:100F9000B90ACA0ADB0AD601C50121E0CD80DE808C
:100FA000EF80F8848C159D05AE05BF0508F020E0A4
:100FB000822E912CB12CA12C8D829E82AF82B8867C
:100FC0005D01CC24DD24A8A2B9A2CAA2DBA29C01A7
:100FD000AD01442755272CA33DA34EA35FA32C9618
:100FE000EEADFFAD2C97E219F3098D889E888E1621
:100FF0009F060CF4F4012896AEACBFAC289724965B
:10100000BFAEAEAE2497C988DA88DC8ACB8A1E864A
:101010001D86812C912C5401839489869A86AB86F7
:10102000BC86812C912C5401CD84DE84CE16DF0643
:1010300004F1F7FF02C0F0E0E0E0E20DF31D2C96B2
:10104000EEACFFAC2C97EE15FF0554F4EE0FFF1F2E
:10105000EE0FFF1FE00FF11F80829182A282B38208
:101060002FEF221A320AE989FA893496FA8BE98B32
:101070003CCF2496AEADBFAD2497CD90DD90ED90E2
:10108000FD902496BFAFAEAF24972B8D3C8D4D8D38
:101090005E8D57FF22C089859A85AB85BC850197F7
:1010A000A109B109AC01BD014C195D096E097F09A7
:1010B0006A017B0181E029853A854B855C85C216F2
:1010C000D306E406F50608F080E0482F50E070E013
:1010D00060E049875A876B877C87B7018827992703
:1010E00068A779A78AA79BA7EE24FF2428A139A186
:1010F0004AA15BA1C701B6010E94163A2B013C012F
:101100002CA13DA14EA15FA168A579A58AA59BA5AB
:101110000E94163A6CA77DA78EA79FA7AB89BC89B2
:101120004D915D916D917D91BC8BAB8BDB01CA01C3
:10113000880D991DAA1DBB1D89839A83AB83BC832F
:1011400091E09F8F29813A814B815C812815390577
:101150004A055B0508F01F8E2CA13DA14EA15FA1A1
:10116000C701B6010E94163A6B017C0189809A8002
:10117000AB80BC808C0C9D1CAE1CBF1C89829A82EB
:10118000AB82BC8252019924882488AA99AAAAAA6F
:10119000BBAA29813A814B815C81280D391D4A1DEA
:1011A0005B1D2CAB3DAB4EAB5FAB8CA49DA4AEA442
:1011B000BFA454019924882488AE99AEAAAEBBAED0
:1011C000280D391D4A1D5B1D2CAF3DAF4EAF5FAFE3
:1011D000AB89BC8914972D933D934D935C931397E2
:1011E00028A139A14AA15BA168A579A58AA59BA5DB
:1011F0000E94163A9F8C690D711D811D911D23015E
:1012000066247724460E571E681E791E2CA53DA520
:101210004EA55FA54A01AA24BB24840C951CA61CDC
:10122000B71C81E090E0A0E0B0E049815A816B8179
:101230007C814C155D056E057F0518F080E090E01F
:10124000DC01880D991DAA1DBB1D41E050E060E046
:1012500070E088A899A8AAA8BBA8CCA8DDA8EEA889
:10126000FFA8C814D904EA04FB0418F040E050E0D9
:10127000BA01840F951FA61FB71F812C912C540112
:101280008394C8ACD9ACEAACFBAC2CAD3DAD4EAD53
:101290005FAD2C153D054E055F0518F0812C912C96
:1012A0005401880E991EAA1EBB1E4D855E854F5F98
:1012B0005F4F5E874D87B8CEEF85F889C190D1909A
:1012C000E190F190F88BEF87DB01CA010197A1094A
:1012D000B1098C199D09AE09BF09349780839183A8
:1012E000A283B383E1E084179507A607B70708F048
:1012F000E0E04E2F50E070E060E02F5F3F4F2C9613
:101300008EAC9FAC2C9728153905B4F203CE2F92E2
:101310003F924F925F926F927F928F929F92AF9285
:10132000BF92CF92DF92EF92FF920F931F93CF93D2
:10133000DF9300D01F92CDB7DEB78B015C834B8368
:10134000FB01E150F04CEE0FFF1FEE0FFF1FE80F07
:10135000F91F408151816281738177FD27C04C0163
:10136000B12CA12CC12CD12C7601A016B10664F5AC
:10137000F40161917191819191914F010E944730E7
:101380004B815C810E9452319B01AC01C701B601C7
:101390000E949B2F6B017C012B813C81205E3F4F83
:1013A0003C832B833FEFA31AB30ADFCF9A83898351
:1013B000312C212C81E090E0A0E0B0E0C12CD12CB8
:1013C000760120163106CCF0C701B6010F900F90C0
:1013D0000F900F90DF91CF911F910F91FF90EF90A1
:1013E000DF90CF90BF90AF909F908F907F906F9045
:1013F0005F904F903F902F900895E981FA8141903E
:10140000519061907190FA83E98340945094609474
:10141000709453014201880E991EAA1EBB1EC5017D
:10142000B4010E9447304B815C810E9452319B0184
:10143000AC01C701B6010E949A2F6B017C0181E0CB
:1014400084149504A604B70408F080E090E0B0E0AE
:10145000A0E02B813C81205E3F4F3C832B833FEFFC
:10146000231A330AAECF85519F4FFC0180819181B1
:101470000197A1F4F90180819181A281B381FB01DF
:1014800080839183A283B383F90184819581A681AE
:10149000B781FA0180839183A283B3830895CF92A9
:1014A000DF92EF92FF926B017C019F7720E030E0AA
:1014B00040E859E50E94123087FF2BC020E030E061
:1014C00040E05FE3C701B6010E944C3187FD0EC0CA
:1014D00020E030E040E05FE3C701B6010E949B2FAF
:1014E000FF90EF90DF90CF900C94843020E030E0BC
:1014F00040E05FEBC701B6010E944C31181684F43E
:1015000020E030E0A901C701B6010E9486316B01DD
:101510007C01C701B601FF90EF90DF90CF90089556
:1015200020E030E040E05FE3C701B6010E949A2F5F
:10153000FF90EF90DF90CF900C94FF2FE091F50398
:10154000F091F603A6E4B9E018964D915D916D9186
:101550007C911B97408351836283738314968D9192
:101560009D910D90BC91A02D84839583A683B78314
:1015700008952F923F924F925F926F927F928F9237
:101580009F92AF92BF92CF92DF92EF92FF920F9312
:101590001F93CF93DF93CDB7DEB7E2970FB6F894E2
:1015A000DEBF0FBECDBF0091540410915504013031
:1015B000110509F063C180913C0490913D04A09114
:1015C0003E04B0913F048090440490904504A09064
:1015D0004604B0904704409040045090410460900D
:1015E0004204709043048F3F2FEF9207A207B20787
:1015F00009F01DC1C301B2016F5F7F4F8F4F9F4F35
:101600000E944730A50194010E94863120E030E01D
:1016100040E85FE40E9486316093790370937A0317
:1016200080937B0390937C0380913D0981508230AD
:1016300008F43CC180E080933D090130110509F0B8
:1016400098C0C0901802D0901902E0901A02F09051
:101650001B02A701960160911409709115098091F0
:101660001609909117090E941230882341F0C09208
:101670001409D0921509E0921609F092170990E02A
:1016800080E019DA092E000CAA0BBB0B80936209CB
:1016900090936309A0936409B093650940912C026B
:1016A00050912D0260912E0270912F024D835E8326
:1016B0006F83788789839A83AB83BC8382E0E82E2B
:1016C000F12C06E519E021E030E0AE014F5F5F4FFD
:1016D00061E070E0CE01059686DB88E0F801AEE3BC
:1016E000B9E001900D928A95E1F7C0901C02D0906C
:1016F0001D02E0901E02F0901F0250E040E062E008
:1017000070E0C80104DE20E030E040E05FE20E94CB
:1017100086319B01AC01C701B6010E949A2F6B0173
:101720007C01AC019B0160911402709115028091C3
:101730001602909117020E94863160935E097093A1
:101740005F098093600990936109A70196016091F8
:1017500000027091010280910202909103020E94A6
:1017600086316093460970934709809348099093A6
:10177000490920916A0930916B0940916C09509197
:101780006D096091460970914709809148099091CF
:1017900049090E949A2F2091100230911102409124
:1017A0001202509113020E9486314B015C0180921B
:1017B0004A0990924B09A0924C09B0924D09209190
:1017C00066093091670940916809509169096091F3
:1017D0005E0970915F0980916009909161090E9492
:1017E0009B2FA50194010E949B2F4B015C018092CD
:1017F000520990925309A0925409B0925509409011
:101800002002509021026090220270902302A301D6
:1018100092010E944C3118160CF04AC040925209B5
:1018200050925309609254097092550951C0BC01FD
:10183000CD016F5F7F4F8F4F9F4F0E944730A501B3
:1018400094010E948631698B7A8B8B8B9C8BC301B0
:10185000B2010E944730A50194010E94863120E028
:1018600030E040E85FE40E9486319B01AC01698969
:101870007A898B899C890E949B2FCECE01151105F8
:1018800009F0D2CEE091A903F091AA030190F08172
:10189000E02D80819181A281B381E0915704F09184
:1018A000580480839183A283B383BECE83E0C3CEEA
:1018B00040902402509025026090260270902702EA
:1018C000A3019201C501B4010E94123087FDA6CF89
:1018D0008091540490915504019709F5E894B7F864
:1018E00040905209509053096090540970905509E6
:1018F00020E030E0A901C301B2010E944C3118166A
:101900000CF09DC320E030E040E450E4C501B40198
:101910000E944C3118160CF092C310923609809137
:101920003609813009F4ABC3823009F4CCC381118C
:101930001DC020E432E0AE01475F5F4FBE01635F30
:101940007F4F89E693E08FDD809154049091550498
:10195000019761F480913D09882309F48DC3833098
:1019600009F086C381E090E080933D0965E070E076
:1019700080E090E00E947E018C0190932F0980937B
:101980002E096091520970915309809154099091E8
:1019900055099F77209128023091290240912A020F
:1019A00050912B020E9486314B015C0120E030E017
:1019B0004FE753E40E94123018160CF4A8C380922B
:1019C000520990925309A0925409B092550920E00F
:1019D00030E0A90160915209709153098091540936
:1019E000909155090E944C3187FF08C0109252090E
:1019F00010925309109254091092550940915209BE
:101A0000509153096091540970915509C8010E9481
:101A100047018091540490915504019709F056C0F4
:101A2000A70196016091040270910502809106025F
:101A3000909107020E94863160934E0970934F097E
:101A400080935009909351096D857E858F85988983
:101A500026DD6B017C0120E030E040E853E40E9489
:101A600012306FEF87FF0EC020E030E0A901C70100
:101A7000B6010E944C3160E087FD04C0C701B60189
:101A80000E941B308EE10E94400169857A858B851A
:101A90009C8505DD6B017C0120E030E040E853E4EB
:101AA0000E9412306FEF87FF0EC020E030E0A901E6
:101AB000C701B6010E944C3160E087FD04C0C70138
:101AC000B6010E941B308FE10E94400180915404B6
:101AD00090915504019709F099C26091400470916A
:101AE000410480914204909143040E94473020E0D9
:101AF00030E040E85FE40E9486316B017C01609138
:101B00003C0470913D0480913E0490913F040E94FA
:101B100047309B01AC01C701B6010E949B2F20E01A
:101B200030E0A9010E949B2F0E941B30AB01BC0139
:101B300090E080E0CAD880915404909155040197B8
:101B400009F064C260914C0470914D0480914E0480
:101B500090914F040E94473020E030E040E85FE47D
:101B60000E9486316B017C016091480470914904A8
:101B700080914A0490914B040E9447309B01AC0134
:101B8000C701B6010E949B2F20E030E0A9010E940E
:101B90009B2F0E941B30AB01BC0181E090E095D8E7
:101BA0008091540490915504019709F02FC2E0915F
:101BB000A903F091AA030190F081E02D8081918129
:101BC000A281B381898F9A8FAB8FBC8F809179036B
:101BD00090917A03A0917B03B0917C038FA398A787
:101BE000A9A7BAA7E0917D03F0917E03C080D180C0
:101BF000E280F380E091AD03F091AE03208031806C
:101C0000E0917103F0917203408051806280738093
:101C1000A481B581BA8BA98BB681BD8F278129A3F9
:101C2000E0916F03F09170031182108288E0F1015E
:101C3000D20101900D928A95E1F7E091A703F0910E
:101C4000A803718260827ADC20E030E040E05FE34C
:101C5000C701B6010E9486314B015C01D3012D9171
:101C60003D914D915C910E948631F201208131813C
:101C7000428153810E949B2FD1016D937D938D935F
:101C80009C931397F3012481358146815781C501C7
:101C9000B4010E948631D20114962D913D914D914F
:101CA0005C9117970E949B2FF10164837583868353
:101CB0009783E091A903F091AA0300811181A50106
:101CC0009401698D7A8D8B8D9C8D0E949B2FD801FC
:101CD0006D937D938D939C931397E091A703F0915F
:101CE000A80389899A899183808343DC27DC20E0DB
:101CF00030E0A901C701B6010E9486314B015C01A9
:101D000020E030E040E45FE3C701B6010E94863185
:101D10006D8B7E8B8F8B988FA989BA892D913D9180
:101D20004D915C910E9486316BA37CA38DA39EA3F1
:101D3000F3012081318142815381C501B4010E94A8
:101D400086319B01AC016BA17CA18DA19EA10E945B
:101D50009B2FD2012D913D914D915C910E949B2F23
:101D6000F1016083718382839383D30114962D9153
:101D70003D914D915C911797C501B4010E94863148
:101D80004B015C01E989FA892481358146815781BB
:101D90006D897E898F89988D0E9486319B01AC0167
:101DA000C501B4010E949B2FD20114962D913D9143
:101DB0004D915C9117970E949B2FF101648375836D
:101DC00086839783E091A903F091AA030081118192
:101DD0002D893E894F89588D698D7A8D8B8D9C8D8B
:101DE0000E949B2FD8016D937D938D939C931397A5
:101DF000E091A703F091A803BD8DB08329A12183B1
:101E0000B8DB9CDB29E33EE843E65EE3C701B601AD
:101E10000E9486316BA37CA38DA39EA32BEA3AEA92
:101E20004AEA5EE3C701B6010E9486316BA77CA730
:101E30008DA79EA729E33EE843EE5EE3C701B60106
:101E40000E9486316FA778AB89AB9AAB82017A8EFC
:101E5000698E8D8D8D8B99A19E8BD2011896BAA318
:101E6000A9A3F80181919191A191B1918F018D8FD9
:101E70009E8FAF8FB8A3A98DBA8D6D917D918D91F5
:101E80009D91BA8FA98FE989FA894190519061900B
:101E90007190FA8BE98BAD89BE89CD90DD90ED9084
:101EA000FD90BE8BAD8B2BA13CA14DA15EA10E94EC
:101EB00086314B015C012BA53CA54DA55EA5C30158
:101EC000B2010E9486319B01AC01C501B4010E94A0
:101ED0009B2F4B015C012FA538A949A95AA9C7011D
:101EE000B6010E9486319B01AC01C501B4010E947C
:101EF0009B2F2D8D3E8D4F8D58A10E949B2FF10160
:101F000061937193819391931F0189A19AA10817FD
:101F1000190709F0A6CFE091A903F091AA03019057
:101F2000F081E02D8FA198A5A9A5BAA58083918302
:101F3000A283B383E0916F03F091700381E090E09E
:101F40009183808380913C0490913D04A0913E0454
:101F5000B0913F040196A11DB11D80933C04909364
:101F60003D04A0933E04B0933F04892B8A2B8B2B16
:101F700099F48091400490914104A0914204B09161
:101F800043040196A11DB11D809340049093410428
:101F9000A0934204B09343048091790390917A0313
:101FA000A0917B03B0917C03E0915704F091580419
:101FB00080839183A283B3838091480490914904E4
:101FC000A0914A04B0914B040196A11DB11D8093CC
:101FD000480490934904A0934A04B0934B04892B7E
:101FE0008A2B8B2B99F480914C0490914D04A091F5
:101FF0004E04B0914F040196A11DB11D80934C0475
:1020000090934D04A0934E04B0934F04E2960FB604
:10201000F894DEBF0FBECDBFDF91CF911F910F911E
:10202000FF90EF90DF90CF90BF90AF909F908F90F8
:102030007F906F905F904F903F902F90089520E099
:1020400030E0A901C301B2010E94123087FF0EC027
:1020500020E030E040E450E4C501B4010E944C317E
:10206000181624F481E08093360959CC82E0FBCF26
:10207000082E000C990B78CC82E090E075CC28E318
:1020800032E0AE01475F5F4FBE01635F7F4F89E67D
:1020900093E0E9D98091540490915504019709F097
:1020A00065CC80913C09882359F0833029F481E084
:1020B00090E080933C095ACC082E000C990BF9CF84
:1020C00082E090E0F6CF20E332E0AE01475F5F4F61
:1020D000BE01635F7F4F89E693E0C5D980915404C8
:1020E00090915504019709F041CC80913B098823D8
:1020F00059F0833029F481E090E080933B0936CC9D
:10210000082E000C990BF9CF82E090E0F6CF80E02A
:1021100090E0AFE7B3E48093520990935309A09302
:102120005409B093550953CC4F925F926F927F92AE
:102130008F929F92AF92BF92DF92EF92FF920F9396
:102140001F93CF93DF9384E090E0D4D1E9E6F3E0EE
:1021500088EFDF011D928A95E9F784E594E0978383
:102160008683C7E5D4E0D093AA03C093A90304E40F
:1021700014E0158B048B25EF33E037AF26AF2FEE3D
:1021800033E03093AE032093AD0344E354E0509327
:10219000AC034093AB0346E354E05093B003409349
:1021A000AF0341EF53E05093B2034093B10343EFC9
:1021B00053E05093B4034093B303F093D403E093FC
:1021C000D303F583E48341E050E0DC014D935C935D
:1021D0008CE194E04CEF53E0DC014D935C9344E0E0
:1021E00054E050931F0440931E044CE054E050937D
:1021F00021044093200444E154E05093230440938D
:10220000220446E6A42E49E0B42ED901AD92BC9238
:102210009187808789E892E09387828729E534E077
:102220003983288340E050E060E87FEB409350041E
:102230005093510460935204709353044FE652E15B
:1022400063E87AE3D8014D935D936D937C93139784
:10225000C4E2D4E08DEA93EEA4EAB6E288839983DF
:10226000AA83BB838FEA9CE8ACE7B3EA8093280497
:1022700090932904A0932A04B0932B048EEB95EC41
:10228000A4E6B5E080932C0490932D04A0932E0433
:10229000B0932F0485E59CE4A8E3BFE78093300466
:1022A00090933104A0933204B0933304ADE5B3E0CE
:1022B000B383A283EDE4F3E01196FC93EE938EE8F2
:1022C00092E0918380834BE359E05383428395836B
:1022D00084839783868391878087938782878CE323
:1022E00099E0958784878DE399E0978786878AE3CD
:1022F00094E015969C938E9314971396DC93CE934B
:10230000129717963C932E931697E6E4F9E080E235
:10231000DF011D928A95E9F788E0F50111928A950F
:10232000E9F7CEE0D9E080E3DE011D928A95E9F776
:10233000EEE3F9E010821182128213821482158278
:1023400016821782DD24D394D9A650E0852E52E060
:10235000952EF401808D918DA28DB38D8E839F83F8
:10236000A887B987412C512C3201439449825A8263
:102370006B827C8243E050E062E070E090E080E0BD
:102380000E949504DD828FEF88A71A8EDAA61F8E31
:102390004B8E5C8E6D8E7E8EE12CF12C8701A80118
:1023A000970165E070E080E090E00E94C20199A38F
:1023B00088A3DF8E1A8ADCA64B8A5C8A6D8A7E8AA5
:1023C00061E08EE10E943801DF8A1A86DBA64B8627
:1023D0005C866D867E8661E08FE10E943801DF8633
:1023E000F40184859585A685B785F5018083918361
:1023F000A283B383F40180859185A285B385F5011D
:1024000084839583A683B783DF91CF911F910F912A
:10241000FF90EF90DF90BF90AF909F908F907F9054
:102420006F905F904F90089580910E09811103C0C5
:1024300081E080930E098091280981112EC081E0EE
:10244000809328098091290990912A09A0912B094C
:10245000B0912C090197A105B105F9F480912D09DE
:102460008823D9F065E070E080E090E00E947E0172
:1024700090932F0980932E0940E050E0BA010E940A
:10248000470165E070E080E090E00E947E0190935B
:102490002F0980932E090E94130280912009811137
:1024A00003C081E08093200980911809811103C045
:1024B00081E080931809089560E070E080E89FE76C
:1024C000089560E070E080E89FE7089560E070E0C4
:1024D00080E89FEF089560E070E080E89FEF089546
:1024E00060E070E080EC9FEF089560E070E080ECC9
:1024F0009FEF0895F5DF60937A0970937B098093CD
:102500007C0990937D09F1DF60936E0970936F09E8
:102510008093700990937109CFDF6093760970936F
:1025200077098093780990937909CBDF60937209DA
:10253000709373098093740990937509C7DF609352
:102540007E0970937F098093800990938109C3DF8E
:10255000609382097093830980938409909385091D
:1025600008954F925F926F927F928F929F92AF9257
:10257000BF92CF92DF92EF92FF920F931F93F89446
:1025800040906D0450906E0460906F0470907004E1
:10259000C0906104D0906204E0906304F090640401
:1025A0004130510509F0A4C09B01AC012419350943
:1025B0004609570929013A010091690410916A04FA
:1025C00020916B0430916C0448015901840C951CD6
:1025D000A61CB71C80169106A206B306A0F40091B3
:1025E00065041091660420916704309168040F5FC0
:1025F0001F4F2F4F3F4F00936504109366042093A5
:102600006704309368048092690490926A04A092EF
:102610006B04B0926C0400916504109166042091E3
:102620006704309168048092710490927204A092C1
:102630007304B0927404009375041093760420938D
:1026400077043093780460936D0470936E048093E4
:102650006F0490937004A8EEB3E0A30192010E946E
:102660004F3A6C0D7D1D8E1D9F1D6093610470930C
:102670006204809363049093640400914802109173
:10268000490220914A0230914B020F3F1F4F2F4FBA
:102690003F4FF1F0009148021091490220914A0207
:1026A00030914B020E3F1F4F2F4F3F4F89F0C0908C
:1026B0004802D0904902E0904A02F0904B0221E09B
:1026C0008C149D04AE04BF0408F420E020937D0424
:1026D00078941F910F91FF90EF90DF90CF90BF9073
:1026E000AF909F908F907F906F905F904F900895E4
:1026F0004B015C0184189508A608B708A301920154
:10270000261B370B480B590B641575058605970575
:10271000D0F082169306A406B50640F420E030E01F
:10272000A90181149104A104B10491F4A8EEB3E0CD
:102730000E944F3AA7019601261B370B480B590BF5
:10274000CA01B901C5CF82169306A406B50670F773
:10275000A8EEB3E0A50194010E944F3A6C0D7D1DD7
:102760008E1D9F1DB5CFFDCECF93DF9300D01F925E
:10277000CDB7DEB71C821B821A82198210927904AF
:1027800010927A0410927B0410927C04BE016F5F59
:102790007F4FCE0103960E94FE2D69817A818B8145
:1027A0009C810E944827009761F4BE016F5F7F4FB4
:1027B000CE0103960E940A2E69817A818B819C81C9
:1027C00027D50F900F900F900F90DF91CF91089524
:1027D000FF920F931F93CF93DF93082F60E070E079
:1027E000CB010E942B34FF24F3940E943126EC018C
:1027F000892B89F010E0CE3F8FEFD80769F00023D6
:1028000061F160E070E0CB010E942B3481E090E048
:10281000892B59F322C011E01ED5EC01892B21F040
:10282000CE3F8FEFD80759F711111EC011E0229645
:1028300009F410E00E94E125EC01892B21F0CE3F44
:102840008FEFD807E1F6111111C011E0CE3F8FEFE5
:10285000D80709F410E001110BC0CE01DF91CF9130
:102860001F910F91FF90089511E0E4CF11E0F3CF95
:1028700060E070E0CB010E942B341F25812F90E097
:10288000C7CFCF93DF931FD6D0E0C0E0892B71F084
:102890006AE070E080E090E00E942B3481E098DFF5
:1028A00012D62196C03D27E0D20781F711D60E94AB
:1028B0009C27109295041092940410928E0410920A
:1028C0008F04109290041092910410928A04109236
:1028D0008B0410928C0410928D0410928604109236
:1028E0008704109288041092890410928204109236
:1028F0008304109284041092850410927E04109236
:102900007F0410928004109281044EEF5FEF6FEF0E
:102910007FEF409348025093490260934A027093BC
:102920004B0210927D04E1E7F4E028E0DF011D9204
:102930002A95E9F710926D0410926E0410926F04BC
:10294000109270041092690410926A0410926B0441
:1029500010926C0410926504109266041092670441
:102960001092680410926104109262041092630441
:1029700010926404DF91CF9108951092A1041092F7
:10298000A2041092A3041092A4041092A0048091B7
:10299000A9049091AA0490939F0480939E0410929E
:1029A0009D0410929C041092980410929904109225
:1029B0009A0410929B041092A6041092A50490E031
:1029C00080E00895CF92DF92EF92FF920F931F93D2
:1029D000CF938C01019709F055C02091A904309143
:1029E000AA0480919E0490919F044091A904509163
:1029F000AA0450939F0440939E042817390781F03E
:102A000010929D0410929C041092980410929904C4
:102A100010929A0410929B041092A6041092A5049E
:102A20008091A9049091AA04019761F58091A50471
:102A30009091A604892B21F480914C02811112C03F
:102A40008091A5049091A6040197E1F480919804E7
:102A500090919904A0919A04B0919B040197A105CB
:102A6000B10581F4109298041092990410929A047E
:102A700010929B0410924C0282E090E09093A60486
:102A80008093A5048091A9049091AA04019709F06C
:102A90001CC18091BF049091C0048017910709F078
:102AA00014C18091BB049091BC04A091BD04B0916D
:102AB000BE04009709F409C12091BA0421110DC088
:102AC0004091BB045091BC046091BD047091BE0460
:102AD000452B462B472B09F4F8C02091A5043091D3
:102AE000A6042230310509F0F0C020919C04211188
:102AF000ECC0FC01C080D180E280F3808091A00412
:102B0000882309F4D3C08091AC049091AD04892B43
:102B100009F4FEC02091AC043091AD0481E0223074
:102B2000310509F080E02091AC043091AD04C1E0A2
:102B30002130310549F02091AC043091AD04C1E061
:102B40002230310509F0C0E0882309F456C02091F5
:102B5000B6043091B7044091B8045091B904C7014C
:102B6000B6010E944C3187FD14C02091B60430910B
:102B7000B7044091B8045091B9046091A1047091D8
:102B8000A2048091A3049091A4040E94123087FDB6
:102B900022C02091B6043091B7044091B8045091FE
:102BA000B904C701B6010E944C31181634F52091C2
:102BB000B6043091B7044091B8045091B9046091C3
:102BC000A1047091A2048091A3049091A4040E9496
:102BD0001230811112C08091AE049091AF04A09187
:102BE000B004B091B104892B8A2B8B2B19F481E0AE
:102BF00080939D0481E080939C04CC2309F456C00B
:102C00002091B6043091B7044091B8045091B904B2
:102C1000C701B6010E94123087FF14C02091B6048C
:102C20003091B7044091B8045091B9046091A10467
:102C30007091A2048091A3049091A4040E944C314D
:102C400087FF22C02091B6043091B7044091B804A8
:102C50005091B904C701B6010E941230811126C0FB
:102C60002091B6043091B7044091B8045091B90452
:102C70006091A1047091A2048091A3049091A40496
:102C80000E944C31181694F48091AE049091AF04D8
:102C9000A091B004B091B104892B8A2B8B2B19F42D
:102CA00081E080939D0481E080939C0481E0909179
:102CB0009C04911180E08093A004C092A104D09262
:102CC000A204E092A304F092A4040130110509F0DB
:102CD00067C18091A5049091A604892BD9F4109224
:102CE000AB0410929C0480914C02882379F082E01E
:102CF00090E09093A6048093A50410924C0220913A
:102D0000A9043091AA0481E0232BE9F080E01BC0E4
:102D100081E009CF10924C028091AB04882349F0E6
:102D200010929D041092A6041092A5041092AB0478
:102D3000EDCF8091A9049091AA04892BE1F08091B4
:102D40009C0410929C042091A5043091A60422308A
:102D5000310509F45EC088F42115310509F448C035
:102D60002130310509F4F3C010929D0410929C04A7
:102D70001092AB0438C081E0E6CF2330310509F46E
:102D8000B1C02430310581F74091980450919904E5
:102D900060919A0470919B0441155105610571057C
:102DA00061F04150510961097109409398045093B1
:102DB000990460939A0470939B04409198045091F5
:102DC000990460919A0470919B04452B462B472BE4
:102DD000D9F42091A7043091A8042130310509F0DD
:102DE00046C010929D041092A6041092A5040CC037
:102DF00080914C02882341F082E090E09093A604F9
:102E00008093A50410924C021092960480919D0428
:102E1000CEC08823C9F38091AE049091AF04A091F5
:102E2000B004B091B104181619061A061B060CF06E
:102E30007DC08091A9049091AA04019709F076C001
:102E40008091AE049091AF04A091B004B091B10410
:102E50008093980490939904A0939A04B0939B0450
:102E600083E090E09093A6048093A504CDCF409199
:102E7000B2045091B3046091B4047091B504452B31
:102E8000462B472BA9F010929D048091B20490919B
:102E9000B304A091B404B091B504809398049093C6
:102EA0009904A0939A04B0939B0481E090E0DACF58
:102EB000882399F080914D0290914E02A0914F028B
:102EC000B09150028093980490939904A0939A042F
:102ED000B0939B0484E090E0C5CF10929D0482E003
:102EE00090E0C0CF8091980490919904A0919A04A9
:102EF000B0919B040097A105B10559F00197A10974
:102F0000B1098093980490939904A0939A04B09384
:102F10009B048091980490919904A0919A04B09197
:102F20009B04892B8A2B8B2B09F06ECF80914D024D
:102F300090914E02A0914F02B0915002892B8A2BA2
:102F40008B2B09F44ECF81E080939D04B3CF409149
:102F500098045091990460919A0470919B044115D2
:102F600051056105710561F041505109610971090F
:102F7000409398045093990460939A0470939B042F
:102F8000409198045091990460919A0470919B0427
:102F9000452B462B472B09F037CF8111C7CF9FCF49
:102FA00080919604882309F431CF80919704CF91C2
:102FB0001F910F91FF90EF90DF90CF9008951092A6
:102FC000A1041092A2041092A3041092A4041092DF
:102FD000A0041092A6041092A50410929F041092CF
:102FE0009E041092C0041092BF0410929D0410928F
:102FF0009C04109298041092990410929A041092D2
:103000009B0410929704109296041092BB041092A5
:10301000BC041092BD041092BE041092BA04109227
:10302000B6041092B7041092B8041092B90488EE56
:1030300093E0A0E0B0E080934D0290934E02A09305
:103040004F02B09350021092B2041092B304109247
:10305000B4041092B5041092AE041092AF04109212
:10306000B0041092B1041092AD041092AC0481E04F
:1030700080934C021092AB041092AA041092A904FF
:103080001092A8041092A70490E080E00895809127
:10309000A9049091AA04892B19F580914C028823E8
:1030A00051F08091AB04811106C081E080939704B8
:1030B0008093960408952091AB0430914C0281E0F6
:1030C00090E0332311F090E080E030E082239323FE
:1030D000892B21F01092970481E0EACF1092960498
:1030E000089582E090E0FA01918380838FEF9FEF53
:1030F0000895CF93DF93EA01009711F00E94AE2864
:103100001982188290E080E0DF91CF910895DB0171
:10311000009719F48FEF8C9308952EEF2C93FC01F8
:103120003F96EF30F10508F034C08827E556F74E9A
:103130008F4F0C94473AC718C518C318C118BF1849
:10314000BB18BD18B918B718B518B218AE18AA1818
:10315000B018C91880E311968C93089589E2FBCFCB
:1031600082E2F9CF11961C92089583E2F4CF81E2B6
:10317000F2CF81E1F0CF87E2EECF8AE2ECCF80E1BF
:10318000EACF84E2E8CF88E2E6CF86E2E4CF81E3CB
:10319000E2CF80E2E0CF8091CD049091CE040895FB
:1031A0009093CE048093CD0408958091CC0408952B
:1031B0009091CC04892B8093CC040895982F9095FE
:1031C0008091CC0489238093CC0408958091CB0412
:1031D00008958091C9049091CA04089561157105FC
:1031E00059F0FB0130E020E070E060E02417350783
:1031F00019F06115710511F0CB010895A081B1811D
:10320000A817B90709F4BF012F5F3F4F3696EECFDD
:103210008091CF0481111CC041D247D29093C20447
:103220008093C1040E9423220E9435229093C604F9
:103230008093C5040E9449250E9450259093C404A0
:103240008093C30481E08093CF0490E080E00895F0
:1032500084EF9FEF08958F929F92AF92BF92CF928B
:10326000DF92EF92FF920F931F93CF93DF9300D0E3
:1032700000D000D01F92CDB7DEB71A861986188607
:103280001F821E821D821C821B821A8219828091DB
:10329000CF0407EF1FEF882309F48BC08E010D5F69
:1032A0001F4F9E012B5F3F4FAE01495F5F4FBE0135
:1032B000675F7F4F90E080E00E94CD268C010097F1
:1032C00021F00596029708F0C7C089859A85009776
:1032D00009F4EFC0ED80FE802B813C812E0D3F1D57
:1032E0004F8158854217530708F4E3C0E80EF91ED2
:1032F000D7014C912091CD043091CE04232B09F4B9
:1033000094C0413F08F069C08CE1840F8D3008F40F
:1033100083C08DE2840F803108F481C088E3840F7C
:103320008B3008F47FC097E8C92E98E1D92EE1E7E9
:10333000F8E16D817E81AE014F5F5F4F89859A858F
:1033400019955C01C114D104A1F189809A8081147E
:10335000910479F18B819C818815990508F484C0CA
:1033600010E000E04B815C8170E060E0C7010E94EA
:10337000713A01151105E9F449815A8169857A8507
:103380008D819E81680F791FC501F6011995E9802D
:10339000FA800D811E812F81388549855A856FEF0E
:1033A0007FEF81E090E00E9468268C01892B09F074
:1033B00053C0C8012A960FB6F894DEBF0FBECDBF2A
:1033C000DF91CF911F910F91FF90EF90DF90CF9001
:1033D000BF90AF909F908F90089530E020E0220F33
:1033E000331FF901EF53FB4F0190F081E02D30972F
:1033F00009F499CF842F90E01995009709F493CFA1
:10340000DC011296ED91FC9113971496CD90DC900F
:10341000309709F08ECF1EC021E030E0E0CF22E0EF
:1034200030E0DDCF23E030E0DACFD12CC12CE9E76A
:10343000F8E14F3F09F07DCFE091C104F091C20463
:10344000309719F404EF1FEF0CC08FEF90E019953F
:103450000097B1F604EF1FEF89859A85009709F46C
:10346000A8CF0E94AE28A5CF0E9497278C018985FE
:103470009A850E94AE2870E060E0C4010E94302767
:1034800098878F830E9465269E838D836F817885C0
:103490006115710559F0C8010E94322A9A878987FF
:1034A00006EF1FEF892B09F05BCF5CCF08EF1FEF12
:1034B00059CF08EF1FEFD0CF2091CF042111DAC7E9
:1034C00087EF9FEF08958091CD049091CE040895E9
:1034D0000E9455250E94AF24EDD0E1ECF4E088E095
:1034E000DF011D928A95E9F71092CF0490E080E009
:1034F000089586E090E0FA019183808390E080E077
:10350000089547E050E061E972E068CEDF92EF9203
:10351000FF920F931F93CF93DF938A01EC01C60FA5
:10352000D71FE090D304F090D404D9800E947F2765
:10353000D816190678F082E090E0F8019183808334
:103540008EEF9FEFDF91CF911F910F91FF90EF9042
:10355000DF900895EF2841F482E090E0F801918334
:10356000808384EF9FEFEECF89818093D20490E037
:103570000196F8019183808390E080E0E3CFCF93C0
:10358000DF93EA010E94C223882321F00E948C2746
:103590000E94C32382E090E0998388838BEF9FEFA2
:1035A000DF91CF910895CF93DF93EB0186E0FB018C
:1035B00011928A95E9F78FEF8883F7DD898306DE1C
:1035C0008A8307DE9D838C83DF91CF910895CF930B
:1035D000DF93EA010E94C523811109C082E090E0D7
:1035E0009983888385EF9FEFDF91CF91089590E0D5
:1035F00080E0D6DD81E090E09983888390E080E0F0
:10360000F3CF0F931F93CF93DF93EA018C01060F43
:10361000171F0E94C52381110BC082E090E099839F
:10362000888385EF9FEFDF91CF911F910F910895D0
:10363000F8018181823038F082E090E099838883BC
:103640008EEF9FEFF0CF81E090E0AADD88E090E080
:103650009983888390E080E0E6CFCF93DF93009753
:10366000D1F4EB01FB01329686E0DF011D928A95D1
:10367000E9F78FEF888385E089831A820E947F278C
:103680008B830E947E279D838C8381E08E838F8332
:10369000DF91CF910895DF91CF9139CD81E89AE103
:1036A0009093D1048093D00408958091D004909198
:1036B000D10408951092D1041092D00408958091FD
:1036C000D3049091D4040895411105C0611571058A
:1036D0008105910561F06093D3047093D4048093C5
:1036E000D5049093D6044093D70481E0089580E0F8
:1036F0000895FF920F931F93CF93DF938A01EC01FC
:10370000C60FD71FF9800E947F27F816190668F0A8
:1037100082E090E0F801918380838EEF9FEFDF914C
:10372000CF911F910F91FF9008956C817D818E81C3
:103730009F814B81C9DF811108C082E090E0F801D0
:103740009183808384EF9FEFEACF89818093D204B5
:1037500090E00196F8019183808390E080E0DFCFD4
:10376000CF93DF93EA01FC01E60FF71F64817581B7
:10377000868197814381A8DF811109C082E090E0B2
:103780009983888384EF9FEFDF91CF91089581E043
:1037900090E09983888390E080E0F6CFE3EDF4E059
:1037A0004081518162817381480F511D611D711DDE
:1037B00040835183628373830895CF93C091D20471
:1037C0004C2F50E06091D3047091D40401960E9474
:1037D000683A8C2FE3DF1092D204CF9108950097BE
:1037E00099F48091D3049091D4042FEFFB012083AE
:1037F000892B59F02091D20430E02F5F3F4F2417DE
:10380000350719F4CB01D9CF82CC0895009799F4EC
:103810008091D3049091D4042FEFFB012083892B56
:1038200059F02091D20430E02F5F3F4F2417350725
:1038300019F4CB01C2CF6BCC08952DE0AC01249FCD
:10384000C001259F900D1124E091DC04F091DD046E
:10385000E80FF91F238134812250310981E02230A1
:10386000310508F080E008950F931F93CF93DF9305
:103870000091DE041091DF04D0E0C0E080E00C177E
:103880001D0749F491E0811190E0892FDF91CF91DC
:103890001F910F9108958111F5CFCE01CEDF2196B2
:1038A000EECFA091DC04B091DD04109729F12091B6
:1038B000DE043091DF0482179307F0F45DE0589F37
:1038C0009001599F300D1124A20FB31FED91FC916F
:1038D0001197309789F012968C91681768F485E0FB
:1038E000689FE00DF11D112480819181892B21F0C9
:1038F00081E09281491708F080E00895EF92FF92ED
:103900000F931F93CF93DF93EA01FC01E60FF71F9C
:1039100002811381E480F5804F2D6E2DC801C1DF37
:1039200081110DC082E090E0998388838EEF9FEF34
:10393000DF91CF911F910F91FF90EF900895C801F3
:103940007CDF882339F082E090E09983888388EFD8
:103950009FEFEECF1093580200935702E092590266
:10396000F0925A0281E090E09983888390E080E0B1
:10397000DFCFCF92DF92EF92FF920F931F93CF93FF
:10398000DF937A01EC01C60FD71FC0905702D09089
:1039900058020091590210915A02412F602FC6011E
:1039A00080DF811110C082E090E0F7019183808375
:1039B0008AEF9FEFDF91CF911F910F91FF90EF90D2
:1039C000DF90CF900895C60138DF882341F082E070
:1039D00090E0F7019183808388EF9FEFEBCF4C81DC
:1039E0005D816E817F819A8189818F3F41F082E084
:1039F00090E0F701918380838EEF9FEFDBCFEDE0C6
:103A0000EC9D9001ED9D300D1124E091DC04F091CE
:103A1000DD04E20FF31F0190F081E02D25E0029F0D
:103A2000E00DF11D11240190F081E02D27E0129F9F
:103A3000E00DF11D1124808391838B818283438368
:103A40005483658376831F5F10935A0281E090E070
:103A5000F7019183808390E080E0ACCFEF92FF92FA
:103A60000F931F93CF93DF937A018C01060F171FDB
:103A7000C091DC04D091DD04209781F021E030E09A
:103A8000F801828193814091DE045091DF04841714
:103A9000950710F030E020E0232B71F482E090E0F5
:103AA000F701918380838EEF9FEFDF91CF911F917C
:103AB0000F91FF90EF9008954DE0489F9001499F2E
:103AC000300D1124C20FD31FB8DE882341F082E0ED
:103AD00090E0F7019183808388EF9FEFE6CFF801B4
:103AE0002481358120383105C8F687818111D6CFF0
:103AF0004181842F90E08F7E009741F082E090E03A
:103B0000F7019183808386EF9FEFCFCF4F833E8372
:103B10002D83268128871986223010F421E02887FA
:103B200021E030E0F70131832083BFCF88E090E0CF
:103B3000FA019183808390E080E00895FB018FEF8C
:103B4000808381E181838FEF9FEF9383828380E87D
:103B500090E095838483168217820895FB018FEF8E
:103B6000808391E0918382839383848384E385833C
:103B700081E090E09783868308954BE050E06BEB03
:103B800072E02CCB8F929F92BF92CF92DF92EF92F6
:103B9000FF920F931F93CF93DF93EA01FC01E60F8F
:103BA000F71F828193810481B580E091DC04F0915C
:103BB000DD04309791F482E090E0998388838CEF64
:103BC0009FEFDF91CF911F910F91FF90EF90DF90CA
:103BD000CF90BF909F908F9008952091DE043091F8
:103BE000DF048217930738F082E090E0998388839E
:103BF0008EEF9FEFE6CF2DE0289F6001299FD00C2C
:103C00001124EC0DFD1DE080F180E114F10499F226
:103C10008281081748F785E0089F80011124E00E93
:103C2000F11EF70180819181892B29F6BB20E1F2F9
:103C3000F7E0BF9E40011124C4010E946328F701F0
:103C400091838083E091DC04F091DD04EC0DFD1D97
:103C50000190F081E02DE00FF11F808191810097AC
:103C600039F482E090E0998388838DEF9FEFA9CFAC
:103C7000A40170E060E00E94713A8091DC049091B0
:103C8000DD04C80ED91EF60180819181080F191F2D
:103C9000F801B28281E090E09983888390E080E02F
:103CA00090CFAF92BF92CF92DF92FF920F931F936C
:103CB000CF93DF93EA01FC01E60FF71F8281938126
:103CC000F4800091DC041091DD040115110581F4EC
:103CD00082E090E0998388838CEF9FEFDF91CF9112
:103CE0001F910F91FF90DF90CF90BF90AF900895FC
:103CF0002091DE043091DF048217930738F082E0D0
:103D000090E0998388838EEF9FEFE8CF2FEF2F0D00
:103D10002C3FA8F72DE0289F6001299FD00C11248B
:103D20000C0D1D1DF80180819181892B89F6F5E02C
:103D3000FF9E50011124C5010E946328F801918360
:103D40008083E091DC04F091DD04EC0DFD1D8081A9
:103D50009181009739F482E090E0998388838DEF18
:103D60009FEFBCCFA50170E060E00E94713AE09146
:103D7000DC04F091DD04EC0DFD1DF28281E090E0A9
:103D80009983888390E080E0A9CFCF92DF92EF9271
:103D9000FF920F931F93CF93DF93860F971FFC0122
:103DA000028113818091DC049091DD04892B81F0E4
:103DB00082E090E0FA01918380838CEF9FEFDF91A6
:103DC000CF911F910F91FF90EF90DF90CF900895CA
:103DD000C801B0E0A0E00197A109B1098F3F9F4F52
:103DE000A105B10540F082E090E0FA019183808363
:103DF0008EEF9FEFE4CF7A018DE0809F6001819F7D
:103E0000D00C1124C6010E946328EC01009741F4F4
:103E100082E090E0F701918380838DEF9FEFCFCF19
:103E2000A60170E060E00E94713AD093DD04C09377
:103E3000DC041093DF040093DE0490E080E02FEFB9
:103E40003FEF8017910741F481E090E0F701918303
:103E5000808390E080E0B3CF3C872B8701962D963E
:103E6000F0CFCF92DF92EF92FF920F931F93CF93F9
:103E7000DF93EC01D12CC12C10E000E0F12CE12CFF
:103E80008A818017110609F0BCF4AE01455F5F4FCF
:103E900063E070E0C7010E94DA28009721F02FEF5D
:103EA0003FEF3C872B87DF91CF911F910F91FF90C0
:103EB000EF90DF90CF900895E881F981EC0DFD1D22
:103EC00023813481C90101960115110519F44F812F
:103ED00044FD049661E070E0C3D7E816F90608F4E3
:103EE0007C010F5F1F4F85E0C80ED11CC9CFF8942D
:103EF0002091DA043091DB0481E02115310509F0CD
:103F000080E0232B09F0789408954F925F926F928E
:103F10007F928F929F92AF92BF92CF92DF92EF9259
:103F2000FF920F931F93CF93DF933C01660E771E92
:103F3000F301828193814C01B12CA12CC091DC044E
:103F4000D091DD04209769F021E030E06091DE043B
:103F50007091DF048617970710F030E020E0232BE4
:103F6000C1F482E090E0FA01918380838EEF9FEFAD
:103F7000DF91CF911F910F91FF90EF90DF90CF9045
:103F8000BF90AF909F908F907F906F905F904F9079
:103F9000089580925B0290925C02A0925D02B092C2
:103FA0005E026DE0689F9001699F300D1124C20F81
:103FB000D31FF3018181833040F082E090E0FA0169
:103FC0009183808386EF9FEFD3CF2A012B813C81A1
:103FD000232BF1F4288139819F8191FF2EC0232B5F
:103FE00009F464C02091E1049A81422F490F5527BA
:103FF000551FBA0141E050E06138710514F050E0FE
:1040000040E0452B09F452C02A87920F9093E104B7
:104010008150823008F476C06ADF882309F4C7C073
:10402000F3018181813009F480C008F470C08230CE
:1040300009F4B5C090E080E090C0232BB9F1209145
:10404000E0049A81E22FE90FFF27FF1F41E050E0D3
:10405000ED3FF10514F050E040E0452B39F12A879F
:10406000920F9093E004D4CFA081B181A20FB31F2F
:1040700011966C91060F111D0196295F3F4F841711
:10408000950794F3C114D104C9F48F8184FF16C03D
:1040900035D721E0A8014B5F5F4F8417950708F4DF
:1040A00020E0A7014B5F5F4F21110EC082E090E03E
:1040B000F2019183808387EF9FEF5ACF1FD721E0D2
:1040C000A8014F5F5F4FE9CF88819981E80EF91E03
:1040D000F70114830383FFEFCF1ADF0A7A018A8185
:1040E0008C151D0409F00CF497CFE881F981EE0DD1
:1040F000FF1D428150E030E020E010E000E090E061
:1041000080E0BDCFF12CE12CD12CC12CE8CF81E097
:1041100090E09C838B83A8DB882309F48BCF81E01C
:1041200090E03ED880E44AD885CF8B859C85019667
:1041300051F083E090E09C838B8382E090E030D864
:1041400080E436D877CF22E082169104A104B1042E
:104150007CF4CE0186DE009761F3789422E030E0B3
:10416000F20131832083892BF9F08DEF9FEF00CF8F
:104170002D813E818091510290915202281739077A
:10418000C1F66091550270915602AE01455F5F4FD6
:1041900080915302909154020E94F129DCCF82E079
:1041A00090E09C838B8346CF90E080E0E1CE82E07C
:1041B00090E0F2019183808385EF9FEFD9CE8F92BB
:1041C0009F92AF92BF92CF92DF92EF92FF920F93A6
:1041D0001F93CF93DF93EA018C01060F171FF8019D
:1041E0008181833098F082E090E09983888386EF24
:1041F0009FEFDF91CF911F910F91FF90EF90DF9094
:10420000CF90BF90AF909F908F9008958091DC04E5
:104210009091DD04892B61F081E090E02091DE0433
:104220003091DF04232B11F490E080E0892B39F4E6
:1042300082E090E0998388838EEF9FEFDACF57DE9C
:10424000882309F4D6C0F8018181813009F48CC03B
:10425000E8F0823099F42091DE043091DF04E0919F
:10426000DC04F091DD0490E080E041E050E02817AC
:10427000390709F0B4C0F8DA811117C0789481E0E9
:1042800090E09983888390E080E0B3CF2091DE04B2
:104290003091DF04E091DC04F091DD0490E080E0F7
:1042A00041E050E02817390741F481E090E00E9496
:1042B000D01880E40E94DE18E1CF63817481672BFF
:1042C00011F05483438301963D96ECCFE091DC04DA
:1042D000F091DD04E00FF11F23813481223031059C
:1042E00069F4238534852F3F3F4F41F422E0C21605
:1042F000D104E104F1040CF5CF01B3DD4FEFC41A92
:10430000D40AE40AF40A035F1F4F4091DE0450917F
:10431000DF0470E060E0C416D506E606F70664F533
:104320000097A1F27894892B09F4A9CF82E090E05C
:10433000998388838DEF9FEF5CCF458156812091D3
:1043400051023091520242175307C1F6AF01455F47
:104350005F4F609155027091560280915302909187
:1043600054020E94F129CACF10E000E090E080E002
:10437000C12CD12C7601C9CF0097A1F610E000E046
:10438000812C912C540183E0E82EF12C1AC0E0918D
:10439000DC04F091DD04E00FF11F8381948102972A
:1043A00049F4F482E38282E090E00E94D01880E435
:1043B0000E94D8188FEF881A980AA80AB80A035FD3
:1043C0001F4F8091DE049091DF04B0E0A0E08816DA
:1043D0009906AA06BB06DCF290E080E0A3CF6381D9
:1043E00074816230710511F45483438301963D96C4
:1043F0003ECF82E090E09983888385EF9FEFF9CEEE
:104400000097B9F48FEFFB01808320915B0230911C
:104410005C024DE0429FC001439F900D1124E0914A
:10442000DC04F091DD04E80FF91F8285FB01818334
:1044300008950C94871888E090E0FA0191838083B6
:1044400090E080E008951092DB041092DA04ECED25
:10445000F4E086E0DF011D928A95E9F78DEB9DE19E
:104460009093D9048093D80408958091D8049091B2
:10447000D90408952F923F924F925F926F927F924C
:104480008F929F92AF92BF92CF92DF92EF92FF9264
:104490000F931F93CF93DF93CDB7DEB762970FB61D
:1044A000F894DEBF0FBECDBFF8942091DA043091AE
:1044B000DB042F5F3F4F3093DB042093DA047894C2
:1044C0002091DC043091DD043B832A83232B09F403
:1044D00056C12091DE043091DF04232B09F44FC133
:1044E0004D875E876F87788B9C878B878A819B81BE
:1044F0009A8B898BD12CC12C198210E000E080911D
:10450000DE049091DF04C816D90618F439813323EC
:1045100029F1F8948091DA049091DB04019790934B
:10452000DB048093DA047894C80162960FB6F8949D
:10453000DEBF0FBECDBFDF91CF911F910F91FF90D6
:10454000EF90DF90CF90BF90AF909F908F907F9033
:104550006F905F904F903F902F900895B60190E03C
:1045600080E02AD38887A989BA8917968C911797F2
:1045700081FD8DC013968D919C911497039709F03E
:1045800086C01596ED91FC91FF83EE832B853C85CB
:10459000E217F30709F07BC0712C612C512C412CE0
:1045A00063C093D39A87898710E04114510431F492
:1045B000A989BA8917961C9112951170A989BA898F
:1045C000ED91FC91E60DF71D23803480111169C037
:1045D000BFEF2B1A3B0A61E070E0C10141D45C01DE
:1045E000A989BA891B968D919C918F3F980709F4F0
:1045F0005CC0B50137D74C01009709F4BBC0E98511
:10460000FA85E80FF91FA989BA891A968C91840D49
:10461000808311114DC08F010F5F1F4F8091510298
:1046200090915202AE81BF81A817B90709F09DC0D1
:1046300081E090E0B885BB2311F090E080E071014B
:1046400009851A859501A401B60191958195910975
:104650003FD38C01892B11F0C40180D58FEF481A0C
:10466000580A95E0690E711CA989BA8912968C9135
:104670008415150429F024F0B981BB2309F491CFE6
:10468000E885EE2321F0B60190E080E097D2FFEFBD
:10469000CF1ADF0A29893A89235F3F4F3A8B298B4A
:1046A0002ECFE5E02E0E311C96CFC5010CD5A3CF41
:1046B0008D859E85AF85B88981839283A383B483DA
:1046C0008F010B5F1F4FAACFE080F180EC81FD814D
:1046D000EE0EFF1ED70113966D917C9114978C916D
:1046E0008F3FE1F1E1E0F0E002C0EE0FFF1F8A959D
:1046F000E2F7CF01092E000CAA0BBB0BFB01408196
:1047000051816281738184239523A623B72321E0FD
:10471000892B8A2B8B2B09F420E0D8012C93D7010D
:1047200011968C91080F111DEA81FB813196FB8354
:10473000EA832C813D81295F3F4F3D832C83A989EA
:10474000BA89ED91FC91E60DF71D82812A813B81AA
:104750008217130611F00CF0B7CF6ACFF701418131
:1047600050E0C8010E94683ADACF1D821C821B8289
:104770001A82E5CF31E0398306EF1FEF6FCF10E0EB
:1047800000E0C7CEB4CB789408952F923F924F9219
:104790005F926F927F929F92AF92BF92CF92DF9281
:1047A000EF92FF920F931F93CF93DF9300D000D02F
:1047B000CDB7DEB70091DC041091DD049924939409
:1047C0000115110509F43EC0A090DE04B090DF048D
:1047D0008EDB982E8823B1F11092DD041092DC0458
:1047E0001092DF041092DE041092E0041092E104B3
:1047F0008FEF9FEFDC0180935B0290935C02A093AC
:104800005D02B0935E0278947BD31E830D83C12C2E
:10481000D12C7601C501B0E0A0E089839A83AB83F7
:10482000BC8322242A94322C89819A81AB81BC8159
:10483000C816D906EA06FB06F4F0C8018FD480E456
:104840000E94DE18892D26960FB6F894DEBF0FBEA3
:10485000CDBFDF91CF911F910F91FF90EF90DF902F
:10486000CF90BF90AF909F907F906F905F904F9050
:104870003F902F900895AD81BE8192E0C916D1047A
:10488000E104F1040CF51B968D919C918F3F9807E4
:1048900009F028D5ED81FE8134862386ED81FE81E5
:1048A00080819181B12CA12C412C512C3201892B7A
:1048B00059F5BFEFCB1ADB0AEB0AFB0AED81FE814B
:1048C0003D96FE83ED83B0CF15962D913C911697C2
:1048D000809151029091520228173907F9F61B96E0
:1048E0008D919C91ADD5DACF8A0D9B1DDC018D9108
:1048F0009C91009709F032D4BFEF4B1A5B0A6B0A08
:104900007B0AE5E0AE0EB11CAD81BE818D919C911C
:10491000119712964C9150E070E060E044165506F5
:10492000660677060CF31AD4C4CFCF93DF93EA015F
:104930002CDF811109C082E090E09983888385EFA4
:104940009FEFDF91CF91089581E090E00E94D01811
:1049500081E090E09983888390E080E0F2CF15DFDA
:104960001092D9041092D804089542E050E06DEFFF
:1049700072E00C94EE18FF920F931F93CF93DF9386
:104980008A01EC01C60FD71FF980B9D20897F81633
:10499000190671F068F082E090E0F801918380835D
:1049A0008EEF9FEFDF91CF911F910F91FF900895B0
:1049B0006C817D818E819F814B810E94641B81115E
:1049C00008C082E090E0F8019183808384EF9FEF3C
:1049D000E9CFF9800E945F1B4F2D50E0BE01685F58
:1049E0007F4F0E94683A89810E94CE1B81E090E04F
:1049F000F8019183808390E080E0D4CFDF92EF9242
:104A0000FF920F931F93CF93DF938A01EC01C60FA0
:104A1000D71F0E945F1B7C01D98071D2DD2059F025
:104A2000029721E030E0D816190619F010F030E0B6
:104A300020E0232B79F482E090E0F80191838083D9
:104A40008EEF9FEFDF91CF911F910F91FF90EF902D
:104A5000DF900895EF2841F482E090E0F80191831F
:104A6000808384EF9FEFEECFF9800E945F1B4F2D74
:104A700050E0BE016E5F7F4F0E94683A89810E94BC
:104A8000CE1B81E090E0F8019183808390E080E08C
:104A9000D9CF85EB94E29093E3048093E2040895E8
:104AA0008091E2049091E30408950895FC0111823D
:104AB0001082938382830895DB011D921C92DC0196
:104AC0001296ED91FC9113977183608313967C93FA
:104AD0006E9312970895FC0180819181DB018D9383
:104AE0009C93A081B181109741F08D919C9191830D
:104AF0008083892B11F4F383E2830895FC01808184
:104B00009181DB018D939C93892B11F473836283D4
:104B1000718360830895FC011182108293838283E4
:104B20000895CF93DF931F921F92CDB7DEB71A82FD
:104B30001982F894BE016F5F7F4F89EE94E0CBDF5E
:104B400089819A81009709F009D389819A81892BFB
:104B500089F7BE016F5F7F4F8DEE94E0BCDF8981E6
:104B60009A81009709F0FAD289819A81892B89F775
:104B700078940F900F90DF91CF910895CF93DF93AA
:104B80001F921F92CDB7DEB71A821982F894BE0128
:104B90006F5F7F4F85EE94E09EDF89819A81009759
:104BA00009F0DCD289819A81892B89F778940F905A
:104BB0000F90DF91CF91089581E0089590E080E01B
:104BC0000895EF92FF920F931F93CF93DF931F925D
:104BD0001F92CDB7DEB71A8219828091E40407EFE5
:104BE0001FEF8823A1F1F894BE016F5F7F4F8DEE18
:104BF00094E071DF789489819A81EE24E394F12C1A
:104C0000892B51F4F894BE016F5F7F4F89EE94E0D9
:104C100062DF7894F12CE12C89819A810EEF1FEFED
:104C20000097A9F0FC014281538164E070E01AD63C
:104C30008C01892B61F0F89469817A81C701880F12
:104C4000991F880F991F87519B4F58DF7894C8018F
:104C50000F900F90DF91CF911F910F91FF90EF90E8
:104C600008950F931F93CF93DF9300D01F92CDB77A
:104C7000DEB71C821B821A8219828091E40407EF3E
:104C80001FEF8823C1F0AE014D5F5F4F64E070E01D
:104C9000CE0101965AD68C01892B69F4E981FA81FB
:104CA0008B819C8193838283F89469817A8185EEDC
:104CB00094E002DF7894C8010F900F900F900F904E
:104CC000DF91CF911F910F9108955FD704960895BA
:104CD0008F929F92AF92BF92CF92DF92EF92FF920C
:104CE0000F931F93CF93DF931F921F92CDB7DEB721
:104CF0001A821982BC016F5F7F4F6330710598F093
:104D0000AA24AA94BA2CC5010F900F90DF91CF91DD
:104D10001F910F91FF90EF90DF90CF90BF90AF90D9
:104D20009F908F9008954115510551F34801590105
:104D30008A016C01CADF8815990511F7E114F104A5
:104D4000F9F28E0D9F1DA816B906D0F28091E404E9
:104D50008823F1F0F894B501645071099701AE0110
:104D60004F5F5F4FC801049685D65C01892B71F4B3
:104D700089819A81F80193838283C601880F991FE4
:104D8000880F991FB80187519B4F96DE7894BBCF4F
:104D900087EFA82EBB24BA94B6CFAF92BF92CF9222
:104DA000DF92EF92FF920F931F93CF93DF931F92A7
:104DB0001F92CDB7DEB71A821982892B09F047C03E
:104DC0006115710509F443C04115510509F43FC04F
:104DD0002115310509F43BC001151105C1F1809180
:104DE000E4048823B9F179016A015B01F894BE01FA
:104DF0006F5F7F4F85EE94E06EDE789489819A81B3
:104E0000009759F1DC0112966D917C91A8010496EE
:104E10004AD68C01E981FA81D501ED93FC93828118
:104E200093810496F601918380834FDFD7018D93A0
:104E30009C93C8010F900F90DF91CF911F910F911C
:104E4000FF90EF90DF90CF90BF90AF9008950FEF5D
:104E50001FEFEFCF07EF1FEFECCF0EEF1FEFE9CF04
:104E6000CF93DF93EC01672B71F498D68C179D07D5
:104E700060F08BD62496C80FD91F8AD68C0F9D1F41
:104E8000DF91CF91089587D6F1CF90E080E0F8CF01
:104E90000F931F93CF93DF932091E40421112BC034
:104EA0008B01EC0189EE94E001DE8DEE94E0FEDDF5
:104EB00085EE94E0FBDD86D00097C1F46FD670E0FC
:104EC00060E0CEDF4FE552E062E070E073D1009722
:104ED00069F480915F029091600272D6B801CE01B0
:104EE000A7D4009719F421E02093E404DF91CF9137
:104EF0001F910F91089584EF9FEFF8CF4CC64EC6D7
:104F0000CF93DF934ED6EC01892B11F40ADE36DE07
:104F1000CE01DF91CF910895CF93DF9342D6EC017C
:104F2000892B09F4FEDDCE01DF91CF9108958091A8
:104F30005F02909160020895CF93DF938091E40423
:104F4000D0E0C0E08823D1F040D6EC01892BB1F449
:104F5000E8DD14DE80915F0290916002C3D1D2D26D
:104F6000EC01892B59F489EE94E0D5DD8DEE94E0C7
:104F7000D2DD85EE94E0CFDD1092E404CE01DF9126
:104F8000CF910895CF93DF930097A1F4DF91CF9154
:104F90000895EC011A821982A883309711F0928348
:104FA00081832F5F3F4FFC01860F971F42175307E6
:104FB00081F7ECCF30E020E0F0E0E0E0AFEF6F5FB2
:104FC0007F4FF4CFAF92BF92CF92DF92EF92FF92DA
:104FD0000F931F93CF93DF9382E096E07C012CEF39
:104FE000E22289E0C82E83E0D82E9FE0A92E93E02C
:104FF000B92EC9E4D6E08E01D6014D915D916D01C7
:10500000F501619171915F01D8011196FC92EE92C8
:1050100015965C934E93149713965C934E93129748
:1050200017967C936E9316979B012F5F3F4F249F9B
:10503000C001259F900D349F900D112419969C93CB
:105040008E931897C7019EDFF80180859185E80E41
:10505000F91E065F1F4FFFE0CF16F3E0DF0661F693
:10506000E3EFF4E08CE091E0DF019C011D92215020
:105070003040E1F71092F2041092F10487E696E0D6
:105080001F8E1E8E1BA21AA219A218A21DA21CA25C
:105090001FA21EA22A968C179D0791F71092460612
:1050A00010924506109248061092470690E080E064
:1050B000DF91CF911F910F91FF90EF90DF90CF90F4
:1050C000BF90AF900895009761F1F89481319105F8
:1050D00080F480914B0690914C06892B29F58091A4
:1050E000550690915606892B31F021E081E090E041
:1050F0000BC08197A8F480915F0690916006892B80
:1051000079F022E082E090E0EAE0E89FD001E99FB8
:10511000B00D1124A75BB94F8D919C91009741F47C
:10512000789490E080E0089520E090E080E0ECCF7B
:10513000E29FF0011124E75BF94FDC0111964D91DC
:105140005C91518340834281538141505109538383
:105150004283FC012193CF0178940895009749F18F
:10516000DC018E91863041F4E0914706F0914806CB
:105170003097F9F0CD0119948630D8F4282F30E01B
:10518000F8948FEF8C938AE0829FF001839FF00D5B
:105190001124E75BF94F8081918112969C938E9345
:1051A0001197B183A0838281938101969383828337
:1051B00078940895CF92DF92EF92FF920F931F930E
:1051C000CF93DF939C0186EF94E08C7F41155105CE
:1051D00009F485C02115310509F481C061157105F7
:1051E00009F47DC08A01AB01B9016D5F7F4F6C7F0F
:1051F0009B012F5F3F4F249F7001259FF00C349F30
:10520000F00C1124F894E9E4F6E023E030E0E90141
:10521000A6A1B7A1C68CD78CCD2809F054C0109791
:1052200009F03CC0C090F104D090F20429E031E0D4
:105230002C193D092E153F0530F47894CFEFDFEFA0
:1052400086EF9FEF1FC02AE02C9FF0012D9FF00DED
:105250001124E75BF94F9183808355834483538303
:10526000428377836683F186E0868CDEEC0CFD1C3E
:10527000F092F204E092F1047894CF3FDC0701F35E
:1052800090E080E0F801D183C083DF91CF911F913E
:105290000F91FF90EF90DF90CF900895AE15BF056E
:1052A00090F02AE02C9FF0012D9FF00D1124E75B78
:1052B000F94F91838083558344835383428377835B
:1052C000668360DED9CF8A0F9B1F2F5F3F4F3A96D0
:1052D0002630310509F09BCFCFEFDFEFCDCF8FEF39
:1052E0009FEFD3CFFF920F931F93CF93DF939C0138
:1052F000235031092330310508F070C0EC01F894D7
:1053000085E09AE09C9FD0019D9FB00D1124AF5A7B
:10531000B94F082F10E0909FF001919FF00D1124DC
:10532000E75BF94F20813181C017D10714F1FF24C9
:10533000F394232B41F52AE0209FF001219FF00DEB
:105340001124E75BF94F8091F1049091F2044085BC
:105350005185841B950B9093F2048093F1042C9F4C
:10536000F0012D9FF00D1124E75BF94F1186108697
:105370001CC0232B39F42D913C911197232BA9F4B8
:105380008150C7CFF12C8AE08C9FF0018D9FF00DEA
:105390001124E75BF94F4085518570E060E0808122
:1053A00091810E94713AF110C6CF8AE08C9FF00182
:1053B0008D9FF00D1124E75BF94F11821082158249
:1053C00014821382128217821682789490E080E011
:1053D000DF91CF911F910F91FF9008958FEF9FEF75
:1053E000F7CF4115510549F1009739F16115710564
:1053F00021F1F8942091450630914606232BB9F40B
:105400002091470630914806232B89F49093460655
:10541000809345067093480660934706789426E08B
:1054200030E090E080E0FA013183208308957894A1
:105430002FEF3FEF86EF9FEFF6CF8FEF9FEF0895AF
:10544000069769F4F8941092460610924506109259
:10545000480610924706789490E080E008958FEF18
:105460009FEF08956115710519F4F0E0E0E011C0B7
:105470008630910581F4E0914506F091460630971B
:10548000A1F3CB0101961995009779F3FC0186E011
:105490008193CF0108959C012350310923303105B8
:1054A00020F72AE0289FD001299FB00D1124A75B87
:1054B000B94F2D913C911197232BB9F216962D914E
:1054C0003C9117972617370780F2F89412962D9182
:1054D0003C9113972115310529F0ED91FC9111971D
:1054E000309711F47894C1CF4181528111965C9329
:1054F0004E932150310913963C932E93129781932A
:105500007894C7CFEFEFF5E086E4DF011D928A952E
:10551000E9F7E3EFF4E08CE091E0DF019C011D92FC
:1055200021503040E1F71092F2041092F104E9E4C6
:10553000F6E08CE3DF011D928A95E9F7E5E4F6E0F9
:1055400084E0DF011D928A95E9F790E080E00895FC
:10555000CF93DF93C0916102D0916202CF3FDC070D
:1055600059F4DFD3909362028093610297FF09C0E0
:10557000D0936202C093610284EF9FEFDF91CF91DD
:10558000089590E080E0FACF8230910528F480936E
:10559000850690E080E008958FEF9FEF08954F9289
:1055A0005F926F927F92AF92BF92CF92DF92EF9213
:1055B000FF920F931F93CF93DF931F921F92CDB74C
:1055C000DEB71A821982009709F479C06115710556
:1055D00009F475C0209161023091620207EF1FEF5C
:1055E0002F3F3F4F09F445C06B015C01412C512C0A
:1055F0003201F12CE12C10E000E09E012F5F3F4FC3
:10560000A6014E195F09B5016E0D7F1D80916102E3
:1056100090916202E6D3892B09F04BC089819A816F
:10562000009741F4E114F10429F420918506222326
:1056300009F442C0E80EF91EEC14FD04D0F480E831
:10564000481684E858068EE16806710420F560E08B
:1056500070E0CB010E942B342AE0420E511C611CE9
:10566000711C0A3F4FEF140721F0043F8FEF18071A
:10567000A1F4C8010F900F90DF91CF911F910F916E
:10568000FF90EF90DF90CF90BF90AF907F906F90A2
:105690005F904F90089501EF1FEF81E090E0013F90
:1056A0002FEF120711F090E080E0892B09F4A5CFCD
:1056B000E0CF04EF1FEFDDCF0AEF1FEFDACF0FEFE0
:1056C0001FEFD7CF4F925F926F927F92AF92BF92B0
:1056D000CF92DF92EF92FF920F931F93CF93DF93BE
:1056E0001F921F92CDB7DEB71A821982009709F474
:1056F00079C06115710509F475C02091610230917E
:10570000620207EF1FEF2F3F3F4F09F445C06B01C7
:105710005C01412C512C3201F12CE12C10E000E015
:105720009E012F5F3F4FA6014E195F09B5016E0D17
:105730007F1D809161029091620209D3892B09F04B
:105740004BC089819A81009741F4E114F10429F456
:1057500020918506222309F442C0E80EF91EEC14BC
:10576000FD04D0F480E8481686E9580688E9680602
:10577000710420F560E070E0CB010E942B342AE038
:10578000420E511C611C711C0E3F4FEF140721F09B
:10579000043F8FEF1807A1F4C8010F900F90DF911D
:1057A000CF911F910F91FF90EF90DF90CF90BF901E
:1057B000AF907F906F905F904F90089502EF1FEF32
:1057C00081E090E0023F2FEF120711F090E080E0BF
:1057D000892B09F4A5CFE0CF04EF1FEFDDCF0EEF4B
:1057E0001FEFDACF0FEF1FEFD7CF809161029091BB
:1057F00062028F3F980749F08CD2892B49F48FEFD2
:105800009FEF909362028093610290E080E00895A0
:1058100084EF9FEF0895FC01680F791F90E080E00E
:10582000E617F70709F408952191820F911DF8CF2B
:1058300020918606211113C08BDE009791F41092FF
:105840008C0610928B0610928A061092890610928E
:1058500088061092870621E020938606089584EF3B
:105860009FEF0895AF92BF92CF92DF92EF92FF9297
:105870000F931F93CF93DF93009709F460C04630D6
:10588000510508F45CC020918606C7EFDFEF2223A4
:1058900009F449C08C01060F171FF801C080D180A0
:1058A000C114D10409F44EC096012A5F3F4F42173C
:1058B000530708F447C07C0180918B0690918C06B9
:1058C00093838283B6016C5F7F4F5801A60EB71E8B
:1058D000C801A1DFF5019183808364E070E0C80115
:1058E0005EDEEC01892BF9F481E090E04DDEB6013B
:1058F000C801049654DEEC01892B91F462E070E05B
:10590000C5014DDEEC01892B59F4C70127DC8091DC
:105910008B0690918C06019690938C0680938B0653
:1059200090E080E031DECE01DF91CF911F910F91A9
:10593000FF90EF90DF90CF90BF90AF900895CFEFA2
:10594000DFEFF1CFC9EFDFEFEECF6F927F928F9253
:105950009F92AF92BF92CF92DF92EF92FF920F93FE
:105960001F93CF93DF9300D01F92CDB7DEB7009780
:1059700009F47AC04115510509F476C020918606D4
:1059800007EF1FEF222309F44DC03A017B015C01B0
:1059900064E070E0CE01019695DE8C01892B09F060
:1059A00041C009811A810115110509F45AC0480145
:1059B00086E0880E911CB701680D791D8091630205
:1059C000909164024FDD6C01009709F450C0A7016B
:1059D00070E060E00E94713A89819A81AB81BC815C
:1059E000EC0CFD1CF70181939193A193B1937F017E
:1059F00081E090E0C9DDB801C70164DE892B31F593
:105A000062E070E0C701800F911F5CDE8C01892B82
:105A1000E9F490E080E0B8DDF501D182C082F301C5
:105A200091828082C8010F900F900F900F90DF91AC
:105A3000CF911F910F91FF90EF90DF90CF90BF908B
:105A4000AF909F908F907F906F90089590E080E04E
:105A50009BDDF50111821082F30111821082C601D3
:105A60007DDB09EF1FEFDECF0FEF1FEFDBCF06EF80
:105A70001FEFD8CF0097A1F04115510589F02115EE
:105A8000310571F0F90136966E177F0748F0DC0199
:105A90002D933C93DA01ED93FC9390E080E0089520
:105AA0008FEF9FEF0895AF92BF92CF92DF92EF9268
:105AB000FF920F931F93CF93DF93009709F45FC07A
:105AC0004115510509F45BC06530710508F457C0F4
:105AD00020918606C7EFDFEF222391F1DC01CD9004
